:10000000EEC0000080C30000A5C3000010C10000C6
:100010000EC100000CC100000AC100000C9463086E
:1000200006C1000004C1000002C1000000C10000C0
:10003000FEC00000FCC00000FAC00000F8C00000D4
:10004000B0C30000F4C000009BC60000CBC6000097
:10005000EEC00000ECC00000EAC00000E8C00000F4
:10006000E6C00000E4C00000D610971208130B137E
:10007000DB110D129610B6107A10E512D412E112AF
:100080000B130B130B136510000000080002010096
:100090000003040700000000000000000102040843
:1000A00010204080010204081020010204081020E2
:1000B000040404040404040402020202020203030E
:1000C0000303030300000000250028002B000000AC
:1000D0000000240027002A0002001D3A2774694E00
:1000E00053E8F5D2CF9C81A6BBCDD0F7EAB9A48363
:1000F0009E25381F02514C6B76879ABDA0F3EEC93E
:10010000D46F7255481B06213C4A57706D3E23043C
:1001100019A2BF9885D6CBECF1130E2934677A5D0E
:1001200040FBE6C1DC8F92B5A8DEC3E4F9AAB79024
:100130008D362B0C11425F78659489AEB3E0FDDA01
:10014000C77C61465B0815322F5944637E2D3017FA
:100150000AB1AC8B96C5D8FFE2263B1C01524F6812
:1001600075CED3F4E9BAA7809DEBF6D1CC9F82A5DA
:10017000B8031E3924776A4D50A1BC9B86D5C8EFC1
:10018000F24954736E3D20071A6C71564B180522C4
:100190003F8499BEA3F0EDCAD735280F12415C7B8E
:1001A00066DDC0E7FAA9B4938EF8E5C2DF8C91B69C
:1001B000AB100D2A3764795E43B2AF8895C6DBFC7D
:1001C000E15A47607D2E3314097F6245580B163182
:1001D0002C978AADB0E3FED9C4001707830711241A
:1001E0001FBECFEFD8E0DEBFCDBF12E0A0E0B1E090
:1001F000E0ECFAE402C005900D92AA37B107D9F7F6
:1002000024E0AAE7B2E001C01D92A933B207E1F7EA
:1002100010E0CFEED0E004C02197FE010E94E4235D
:10022000CD3ED107C9F70E9480210C945E25E8CE0F
:100230008F929F92AF92BF92CF92DF92EF92FF92F6
:1002400020917601309177014091780150917901A8
:1002500060915E0170915F018091600190916101F8
:100260000E944C2320917A0130917B0140917C01C6
:1002700050917D010E944C236B017C0120E030E015
:1002800040E853E40E94662287FF0EC020E030E081
:10029000A901C701B6010E94482387FD07C0C70115
:1002A000B6010E946A2203C06FEF01C060E070E0F7
:1002B00080916A0159D320917E0130917F01409154
:1002C0008001509181016091620170916301809180
:1002D0006401909165010E944C232091820130912C
:1002E000830140918401509185010E944C236B0150
:1002F0007C0120E030E040E853E40E94662287FF62
:100300000EC020E030E0A901C701B6010E944823D9
:1003100087FD07C0C701B6010E946A2203C06FEFC4
:1003200001C060E070E080916E011ED320918601D3
:100330003091870140918801509189016091660157
:100340007091670180916801909169010E944C232E
:1003500020918A0130918B0140918C0150918D0147
:100360000E944C236B017C0120E030E040E853E424
:100370000E94662287FF0EC020E030E0A901C7017D
:10038000B6010E94482387FD07C0C701B6010E943D
:100390006A2203C06FEF01C060E070E080917201DB
:1003A000E3D281E090E05CD1409124045091250497
:1003B000609126047091270480E090E04DD18090F8
:1003C000300490903104A0903204B090330420E0C7
:1003D00030E040E85FEBC501B4010E94662288234B
:1003E00031F1C0902404D0902504E0902604F090D0
:1003F0002704A7019601C501B4010E9401224B0107
:100400005C0120E030E040E054E3C701B6010E9407
:100410004C239B01AC01C501B4010E94482318166E
:1004200034F087E991E090930F0480930E0480915B
:100430003404882331F087E991E090930F0480938E
:100440000E048091280490912904A0912A04B0916F
:100450002B04BC01CD016F5F7F4F8F4F9F4F609387
:1004600028047093290480932A0490932B040E94FB
:10047000962220912C0430912D0440912E0450910D
:100480002F040E944C2360932404709325048093CE
:10049000260490932704FF90EF90DF90CF90BF90B9
:1004A000AF909F908F900895CF93DF93EEE0F4E0AC
:1004B00087E2DF011D928A95E9F780E090E0A0E8ED
:1004C000BFEB82A393A3A4A3B5A38AE097EDA3E215
:1004D000BCE3868F978FA0A3B1A38EEF90E2A5EC2B
:1004E000BBE384839583A683B78383E19DE7A1EF74
:1004F000B2EC80879187A287B38789E399E4A4EB64
:10050000B8E984879587A687B7878AE09BEAA2EC3B
:10051000B8E3808B918BA28BB38BAEE8B2E0B38350
:10052000A2838CE892E011969C938E9387E192E0EF
:1005300090938D0280938C0282E294E015969C93B6
:100540008E93149782E194E013969C938E93129766
:1005500084E294E017969C938E931697AAE7B2E0F4
:1005600082E1ED0119928A95E9F7B58BA48B8EE0B3
:1005700090E011969C938E9382E491E013969C9365
:100580008E93129786E291E015969C938E93149722
:100590008AE091E019969C938E931897CEE5D1E06E
:1005A00061E08C8567D261E0888964D261E08C89E2
:1005B000DF91CF915FC20895EF92FF920F931F9347
:1005C000CF93DF937C018B01EA010E94E80C81113B
:1005D00021C080918E0190918F01049711F183E0E9
:1005E00090E090938F0180938E011BC098819111B0
:1005F000F0CF28ED38EB45E050E060E070E0CB0153
:100600000E94730FAE01B801C7010E94810FC8019B
:100610000E944E0F80919A0290919B02892B31F398
:10062000D8CFDF91CF911F910F91FF90EF90089558
:10063000CF93DF9320918E0130918F0124303105CB
:1006400041F0EB010E94810FCE01DF91CF910C941C
:100650004E0FDF91CF9108950C949B130C9490133F
:100660000C947E130C945E0F0C942313089560E099
:1006700070E080E090E00C94C30C0895AF92BF92BC
:10068000CF92DF92EF92FF920F931F93CF93DF935E
:1006900000D0CDB7DEB75C0169017A018B0180E043
:1006A00090E0C114D104E104F104F1F0C114D104CB
:1006B00021E0E206F10410F4A60102C04FEF5FEF63
:1006C0009E012F5F3F4FB801C5010E943B148F3F31
:1006D0002FEF920749F029813A81C21AD30AE10823
:1006E000F108020F131FDDCF0F900F90DF91CF9114
:1006F0001F910F91FF90EF90DF90CF90BF90AF9040
:100700000895089508951F920F920FB60F92112425
:100710002F933F934F935F936F937F938F939F9309
:10072000AF93BF93EF93FF93E0919001F09191010C
:100730000995FF91EF91BF91AF919F918F917F911B
:100740006F915F914F913F912F910F900FBE0F903E
:100750001F9018951F920F920FB60F9211242F938E
:100760003F934F935F936F937F938F939F93AF9339
:10077000BF93EF93FF93E0919201F091930109955C
:10078000FF91EF91BF91AF919F918F917F916F9169
:100790005F914F913F912F910F900FBE0F901F903F
:1007A00018951F920F920FB60F9211242F933F931B
:1007B0008F939F93AF93BF9380919D0290919E02E0
:1007C000A0919F02B091A00230919C0223E0230FE0
:1007D0002D3720F40196A11DB11D05C026E8230F79
:1007E0000296A11DB11D20939C0280939D029093BF
:1007F0009E02A0939F02B093A0028091A1029091CB
:10080000A202A091A302B091A4020196A11DB11D64
:100810008093A1029093A202A093A302B093A4029A
:10082000BF91AF919F918F913F912F910F900FBEEC
:100830000F901F9018953FB7F8948091A102909166
:10084000A202A091A302B091A40226B5A89B05C064
:100850002F3F19F00196A11DB11D3FBFBA2FA92F3F
:10086000982F8827820F911DA11DB11DBC01CD01BC
:1008700042E0660F771F881F991F4A95D1F70895A8
:100880008F929F92AF92BF92CF92DF92EF92FF92A0
:100890006B017C01D0DF4B015C01C114D104E10488
:1008A000F104F1F02EDFC7DFDC01CB0188199909D3
:1008B000AA09BB09883E9340A105B10570F321E068
:1008C000C21AD108E108F10888EE880E83E0981E6C
:1008D000A11CB11CC114D104E104F10421F7DDCF46
:1008E000FF90EF90DF90CF90BF90AF909F908F9050
:1008F0000895789484B5826084BD84B5816084BD98
:1009000085B5826085BD85B5816085BDEEE6F0E088
:10091000808181608083E1E8F0E0108280818260E4
:100920008083808181608083E0E8F0E08081816065
:100930008083E1EBF0E0808184608083E0EBF0E095
:10094000808181608083EAE7F0E080818460808339
:1009500080818260808380818160808380818068E3
:1009600080831092C10008951F93CF93DF93182FB7
:10097000EB0161E07FD0209711F460E004C0CF3F2D
:10098000D10531F461E0812FDF91CF911F91AEC08D
:10099000E12FF0E0E857FF4FE491E330F9F048F43D
:1009A000E130B9F0E230A1F584B5806284BDC8BD04
:1009B00034C0E730E9F0E83019F1E43049F58091CE
:1009C0008000806280938000D0938B00C0938A0067
:1009D00024C084B5806884BDC7BD1FC080918000DD
:1009E000806880938000D0938900C093880015C0F0
:1009F0008091B00080688093B000C093B3000DC0B8
:100A00008091B00080628093B000C093B40005C0B4
:100A1000C038D1050CF0B6CFB0CFDF91CF911F9188
:100A20000895833081F028F4813099F08230A1F06C
:100A300008958730A9F08830B9F08430D1F48091DE
:100A400080008F7D03C0809180008F77809380002D
:100A5000089584B58F7702C084B58F7D84BD0895D5
:100A60008091B0008F7703C08091B0008F7D80931C
:100A7000B0000895CF93DF9390E0FC01E456FF4F60
:100A80002491FC01E055FF4F8491882361F190E0AF
:100A9000880F991FFC01E253FF4FC591D491FC01CF
:100AA000EC53FF4FA591B491611109C09FB7F89421
:100AB0008881209582238883EC912E230BC062309D
:100AC00061F49FB7F8943881822F809583238883BF
:100AD000EC912E2B2C939FBF06C08FB7F894E88122
:100AE0002E2B28838FBFDF91CF9108951F93CF9333
:100AF000DF93282F30E0F901E857FF4F8491F90187
:100B0000E456FF4FD491F901E055FF4FC491CC2337
:100B1000C1F0162F811185DFEC2FF0E0EE0FFF1FE3
:100B2000EC53FF4FA591B4918FB7F894111105C004
:100B30009C91ED2FE095E92302C0EC91ED2BEC9315
:100B40008FBFDF91CF911F910895FC01918D228D70
:100B5000892F90E0805C9F4F821B91098F739927AA
:100B60000895FC01918D828D981731F0828DE80FE8
:100B7000F11D858D90E008958FEF9FEF0895FC01A2
:100B8000918D828D981761F0828DDF01A80FB11DC4
:100B90005D968C91928D9F5F9F73928F90E00895E8
:100BA0008FEF9FEF0895FC01848DDF01A80FB11D29
:100BB000A35ABF4F2C91848D90E001968F73992793
:100BC000848FA689B7892C93A089B1898C91806480
:100BD0008C93938D848D981306C00288F389E02D41
:100BE00080818F7D80830895CF93DF93EC01888D82
:100BF0008823C1F0EA89FB89808185FD05C0A88929
:100C0000B9898C9186FD0EC00FB607FCF5CF8081A7
:100C100085FFF2CFA889B9898C9185FFEDCFCE01F0
:100C2000C2DFE8CFDF91CF910895EF92FF920F934B
:100C30001F93CF93DF93EC0181E0888F9B8D8C8D88
:100C4000981305C0E889F989808185FD23C0F62EB7
:100C50000B8D10E00F5F1F4F0F731127E02E8C8D4F
:100C6000E8120BC00FB607FCFACFE889F98980813A
:100C700085FFF5CFCE0197DFF2CF8B8DFE01E80F18
:100C8000F11DE35AFF4FF0820B8FEA89FB898081C7
:100C9000806207C0EE89FF896083E889F9898081D5
:100CA0008064808381E090E0DF91CF911F910F916C
:100CB000FF90EF900895CF92DF92EF92FF921F93F3
:100CC000CF93DF93EC016A017B01122FE889F98948
:100CD00082E080834115514E61057105B1F060E0FD
:100CE00079E08DE390E0A70196010E94C223DA012A
:100CF000C9010197A109B109B695A795979587955F
:100D0000AC01411580E15807A8F0E889F989108203
:100D100060E874E88EE190E0A70196010E94C2238A
:100D2000BA01A90141505109610971097695679588
:100D300057954795EC85FD855083EE85FF8540836B
:100D4000188EEC89FD891083EA89FB898081806196
:100D50008083EA89FB89808188608083EA89FB89B6
:100D6000808180688083EA89FB8980818F7D808390
:100D7000DF91CF911F91FF90EF90DF90CF9008957A
:100D80001F920F920FB60F9211242F938F939F9360
:100D9000EF93FF93E091B502F091B6028081E0916C
:100DA000BB02F091BC0282FD12C090818091BE0214
:100DB0008F5F8F732091BF02821751F0E091BE02C6
:100DC000F0E0EB55FD4F958F8093BE0201C080810E
:100DD000FF91EF919F918F912F910F900FBE0F90E8
:100DE0001F9018951F920F920FB60F9211242F93F8
:100DF0003F934F935F936F937F938F939F93AF93A3
:100E0000BF93EF93FF9385EA92E0CDDEFF91EF91E0
:100E1000BF91AF919F918F917F916F915F914F9112
:100E20003F912F910F900FBE0F901F901895E5EAFC
:100E3000F2E01382128288EE93E0A0E0B0E08483B7
:100E40009583A683B7838EE192E09183808385ECBE
:100E500090E09587848784EC90E09787868780EC84
:100E600090E0918B808B81EC90E0938B828B82EC75
:100E700090E0958B848B86EC90E0978B868B118E1F
:100E8000128E138E148E08958F929F92AF92BF92FE
:100E9000CF92DF92EF92FF920F931F93CF93DF9346
:100EA0007C018B016C0182E0C80ED11C4701E5E09A
:100EB0008E0E911CC0E0D0E0F60161916F014AE016
:100EC00050E0C801C6D05C016EE2C80167D08A0D4F
:100ED0009B1DC80FD91FC814D90471F74AE050E010
:100EE000F7016581C801B5D08C0F9D1FDF91CF91AF
:100EF0001F910F91FF90EF90DF90CF90BF90AF9038
:100F00009F908F900895E2E4F3E08EE292E0918367
:100F1000808312821382148215820895CF92DF9209
:100F2000EF92FF920F931F93CF93DF936C017A019F
:100F30008B01C0E0D0E0CE15DF0589F0D8016D91BE
:100F40008D01D601ED91FC910190F081E02DC6015B
:100F50000995892B11F47E0102C02196ECCFC701BF
:100F6000DF91CF911F910F91FF90EF90DF90CF9085
:100F700008956115710579F0FB0101900020E9F7F2
:100F80003197AF01461B570BDC01ED91FC910280BC
:100F9000F381E02D099480E090E00895DC01ED916B
:100FA000FC910190F081E02D09944F925F926F9235
:100FB0007F92EF92FF920F931F93CF93DF93CDB762
:100FC000DEB7A1970FB6F894DEBF0FBECDBF7C0190
:100FD000FA01CB0119A2223008F42AE08E010F5D3C
:100FE0001F4F422E512C612C712CBF01A301920185
:100FF0000E94C223F901CA01015011096A3014F498
:10100000605D01C0695CD8016C93232B242B252BD8
:1010100061F7B801C701ADDFA1960FB6F894DEBF46
:101020000FBECDBFDF91CF911F910F91FF90EF9039
:101030007F906F905F904F9008952115310541F496
:10104000DC01ED91FC910190F081E02D642F099479
:10105000ACCF9A01462F50E060E070E0EECF8130D7
:1010600039F018F0823051F0089510926E00089512
:1010700080916F008D7F80936F0008958091700044
:101080008D7F8093700081E08093B0008091B100EB
:10109000887F84608093B1001092B3000895CF934D
:1010A000C82F809194018C1307C0E8EDF0E0E49123
:1010B0008FEF8093940101C0EFEF8E2FD0DF60E0BF
:1010C0008C2FCF9113CD1F920F920FB60F92112438
:1010D0002F933F934F935F936F937F938F939F9340
:1010E000AF93BF93EF93FF9380914B0390914C0389
:1010F000A0914D03B0914E03892B8A2B8B2B51F17C
:1011000080914803E0914903F0914A039081892737
:10111000808380914B0390914C03A0914D03B0913B
:101120004E03181619061A061B06BCF480914B03D1
:1011300090914C03A0914D03B0914E030197A109EA
:10114000B10980934B0390934C03A0934D03B0934C
:101150004E0303C080919401A2DFFF91EF91BF91F4
:10116000AF919F918F917F916F915F914F913F913F
:101170002F910F900FBE0F901F90189540E052ECEA
:1011800061E070E080E090E000C026E085EA92E057
:1011900092CD0895CF92DF92EF92FF920F931F931B
:1011A0004ADB60934F0370935003809351039093F5
:1011B0005203009153031091540320915503309131
:1011C00056036B017C01C01AD10AE20AF30A40E11E
:1011D000C41647E2D406E104F10448F160935303D6
:1011E0007093540380935503909356030E94662195
:1011F00022DB009153031091540320915503309149
:101200005603DC01CB01801B910BA20BB30B803189
:101210009742A105B10538F081E090E090930D046C
:1012200080930C0404C010920D0410920C0481E011
:101230001F910F91FF90EF90DF90CF9008956F92E4
:101240007F928F929F92AF92BF92CF92DF92EF9256
:10125000FF920F931F93CF93DF935C017B014A01B1
:1012600001E010E00E151F0564F568018FEFC81A44
:10127000D80AE801CC0FDD1FC80DD91D6880798020
:1012800061147104E1F060E372E0C3010E9455252E
:10129000892B19F41982188212C063E372E0C3012A
:1012A0000E945525892B59F4CE14DF0441F06801C2
:1012B000E2E0CE0ED11C198218821B821A828601AE
:1012C000D1CF81E0F5018083B401C7010E94C4132E
:1012D000F5019283818380E090E0DF91CF911F91AF
:1012E0000F91FF90EF90DF90CF90BF90AF909F90C5
:1012F0008F907F906F90089587E593E0089580E048
:1013000008950F931F93CF93DF938B01BA01E901E7
:10131000198218829801012E000C440B550BFC0118
:1013200081819281ABD9019621F01983088380E0F5
:1013300001C081E0DF91CF911F910F9108950F932C
:101340001F93CF93DF9300D0CDB7DEB7FB018A01A7
:10135000B9019E012F5F3F4FAF01FC018181928156
:101360000E94DD13019639F089819A81F8019183F9
:10137000808380E001C081E00F900F90DF91CF91DA
:101380001F910F910895FC0180810895089508959B
:1013900081E0FB01808380E008950895109281032D
:1013A0000895FC01818192810C94BB13CF93DF934C
:1013B000CDB7DEB72A970FB6F894DEBF0FBECDBF0C
:1013C000AC01CB0160E070E049835A836B837C837E
:1013D000092E000CAA0BBB0B8D839E83AF83B887AD
:1013E0009E01275F3F4FAE014F5F5F4F68E070E0A7
:1013F000809170039091710384DF811108C081E0B6
:1014000029853A852830310519F480E001C081E052
:101410002A960FB6F894DEBF0FBECDBFDF91CF91F5
:1014200008950F931F93CF93DF9300D0CDB7DEB70E
:101430008B019E012F5F3F4FAC0180917003909113
:1014400071035FDF811108C081E029813A81201793
:10145000310719F480E001C081E00F900F90DF9117
:10146000CF911F910F910895CF93DF93EC011092CC
:101470007403109273031092800310927F03AC01E7
:1014800060E070E0CB010E94211BAE0161E070E0E2
:1014900080E090E00E94211B809170039091710385
:1014A000DF91CF917ACF4F925F926F927F928F921E
:1014B0009F92AF92BF92CF92DF92EF92FF920F93E3
:1014C0001F93CF93DF9300D0CDB7DEB79C016C01A3
:1014D00097FF03C087E0C80ED11C43E0D594C794A2
:1014E0004A95E1F7C90168E070E00E94AF237C01F2
:1014F00089010E5F1F4F80916E0390916F038017DB
:1015000091070CF0DCC080916C0390916D03009703
:1015100031F00E94AD2410926F0310926E03C80147
:101520000E94182490936D0380936C03892B29F0FB
:1015300010936F0300936E03C2C0A12CB12CAC14A6
:10154000BD040CF05EC0412C512C320100E010E0D3
:1015500098012B583C4FAE014F5F5F4F61E070E048
:101560008091700390917103EADE811198C18981A5
:101570009A812FEF421A520A620A720A20E9421631
:101580002FE5520621E0620671043CF060917F0372
:10159000709180038DEE90E02DC0080F191F0A3066
:1015A000110551F549E050E060E070E085E793E017
:1015B0000E94582160917F03709180038823C1F0BD
:1015C00080917D0390E06817790709F0B8CF8EEE1F
:1015D00090E0ECDE80917F03909180030196992743
:1015E0009093800380937F038FEFA81AB80AA7CF48
:1015F0008FEE90E0DBDEA7CF0A3011050CF4A8CF08
:101600009ECFEF2809F44BC1C12CD12C760100E00C
:1016100010E098012B583C4FAE014F5F5F4F61E0E7
:1016200070E0809170039091710389DE811137C160
:1016300089819A812FEFC21AD20AE20AF20A20E9BE
:10164000C2162FE5D20621E0E206F1043CF06091DB
:101650007F03709180038DEE90E02AC0080F191F60
:101660000A30110539F549E050E060E070E085E7A7
:1016700093E00E94582160917F037091800388233A
:10168000A9F080917D0390E06817790709F007C100
:101690008EEE90E08BDE80917F0390918003019627
:1016A00099279093800380937F03F9C08FEE90E099
:1016B0007DDEAACF0A3011050CF4ABCFF0C000E0FC
:1016C00010E00C151D050CF077C0412C512C320197
:1016D000A12CB12C480193E0880C991C9A95E1F754
:1016E00020916C0330916D03C4018A0D9B1D280F5E
:1016F000391FAE014F5F5F4F61E070E08091700372
:10170000909171031CDE8111CAC089819A812FEFEB
:10171000421A520A620A720A20E942162FE552065C
:1017200021E0620671043CF060917F0370918003B8
:101730008DEE90E034C0A80EB91E8AE0A816B10460
:10174000A9F549E050E0B40180916C0390916D03DC
:101750000E94582160917F03709180038823E9F0F3
:1017600080916C0390916D03FC01E80DF91D80855B
:1017700090E06817790709F0A4CF8EEE90E016DEAE
:1017800080917F0390918003019699279093800325
:1017900080937F030F5F1F4F94CF8FEE90E006DEA4
:1017A000412C512C3201A12CB12C9ACF2AE0A21647
:1017B000B1040CF495CF85CFE114F10409F46AC0AB
:1017C000680183E0CC0CDD1C8A95E1F7812C912C1B
:1017D000540100E010E098012B583C4FAE014F5FE0
:1017E0005F4F61E070E08091700390917103A7DD1D
:1017F000811155C089819A812FEF821A920AA20A1B
:10180000B20A20E982162FE5920621E0A206B10471
:101810003CF060917F03709180038DEE90E034C0C6
:10182000080F191F0A30110589F549E050E060E002
:1018300070E085E793E00E94582160917F037091EA
:1018400080038823F9F080917D0390E06817790781
:1018500009F58EEE90E0AADD80916C0390916D0306
:10186000A70165E773E08C0D9D1D0E9445258091C1
:101870007F03909180030196992790938003809332
:101880007F0308C08FEE90E091DDA0CF0A301105F4
:101890000CF4A1CF80916C0390916D0302C080E0A5
:1018A00090E00F900F90DF91CF911F910F91FF90DB
:1018B000EF90DF90CF90BF90AF909F908F907F90F0
:1018C0006F905F904F900895CF92DF92EF92FF92CA
:1018D0000F931F93CF93DF931F92CDB7DEB76C01A9
:1018E0007B018A01452B39F0AB0160E070E0C80153
:1018F0000E9454218983B701C60158DD81110DC0B2
:101900000115110551F0B701C8018BDD811105C02A
:1019100061E070E0CE01019684DD0F90DF91CF9100
:101920001F910F91FF90EF90DF90CF900895CF928D
:10193000DF92EF92FF92CF93DF93CDB7DEB7289778
:101940000FB6F894DEBF0FBECDBF6B01E12CF12CBA
:10195000C982DA82EB82FC822D833E834F835887D3
:10196000AE014F5F5F4F68E070E0AEDF28960FB6C4
:10197000F894DEBF0FBECDBFDF91CF91FF90EF9007
:10198000DF90CF9008950F931F93CF93DF93EC01D7
:101990008B01B2DC9093710380937003009739F050
:1019A000A801BE014CDCEC01892B19F40BC0CFE37C
:1019B000D2E08091700390917103E8DC1092710382
:1019C00010927003CE01DF91CF911F910F91089576
:1019D0008091700390917103D6CC2F923F924F92D9
:1019E0005F926F927F928F929F92AF92BF92CF92AF
:1019F000DF92EF92FF920F931F93CF93DF93CDB7B8
:101A0000DEB769970FB6F894DEBF0FBECDBF209149
:101A10007403222309F429C25D8B4C8B688B798B6C
:101A20008A8B9B8B9A01AB01BC01CE0101960E946F
:101A3000112010E038E0232E312C89819A8118166C
:101A400019060CF00DC21F861E861D861C86898114
:101A50009A81AC85BD85A817B9070CF0F6C1EB815A
:101A6000FC812E853F85E20FF31F20813181309369
:101A70006B0320936A03848195819093690380931B
:101A80006803428153815093670340936603468104
:101A900057815093650340936403820F931F9C0109
:101AA000990F440B550B2E8B3F8B488F598FC12CB0
:101AB000D12C76012E893F89488D598DC216D306C7
:101AC000E406F50608F0A5C11F8260916A037091D3
:101AD0006B038B01072E000C220B330BD701C601C1
:101AE0000496A11DB11D80179107A207B30728F422
:101AF000E0916603F09167030AC0E4E0F0E0E61BC2
:101B0000F70BEC0DFD1D8091640390916503E80FC8
:101B1000F91F4080512C612C712CD701C60105960C
:101B2000A11DB11D80179107A207B30728F4E0910A
:101B30006603F09167030AC0E5E0F0E0E61BF70BEF
:101B4000EC0DFD1D8091640390916503E80FF91F72
:101B50008081582AD701C6010696A11DB11D8017A4
:101B60009107A207B30728F4E0916603F091670399
:101B70000AC0E6E0F0E0E61BF70BEC0DFD1D8091DE
:101B8000640390916503E80FF91F8081682AD701EB
:101B9000C6010796A11DB11D80179107A207B307C3
:101BA00028F4E0916603F09167030AC0E7E0F0E0F3
:101BB000E61BF70BEC0DFD1D80916403909165030E
:101BC000E80FF91F8081782A4601570148E0840E0A
:101BD000911CA11CB11C081519052A053B0508F428
:101BE000B6C0C016D106E206F30638F4809166034B
:101BF000909167038C0D9D1D09C0C601861B970B34
:101C00002091640330916503820F931F68E070E0B8
:101C100008DCE0916A03F0916B039F010F2E000C2A
:101C2000440B550BD301C201880D991DAA1DBB1D84
:101C3000281739074A075B07C8F082169306A406DF
:101C4000B50638F42091660330916703C601089603
:101C500009C0C1018E1B9F0B8C0D9D1D209164033B
:101C600030916503820F931FB2019BC08601BF01B3
:101C7000685071096C197D0982169306A406B50691
:101C800038F42091660330916703C601089609C0B5
:101C9000C1018E1B9F0B8C0D9D1D20916403309103
:101CA0006503820F931FBDDB80916A0390916B03E4
:101CB000B101681B790B600F711F640D751D809158
:101CC000640390916503ADDB80916A0390916B038F
:101CD000AC0148505109FA01E01BF10BAC01092E8F
:101CE000000C660B770B84169506A606B70638F42B
:101CF0002091660330916703C60108960AC09101DE
:101D0000281B390BC9018C0D9D1D20916403309156
:101D10006503820F931FAF0160E070E00E945421C1
:101D20008F8320916A0330916B03A101421B530BF7
:101D30009A01200F311F240D351D40E050E0682F1F
:101D400080916403909165030E94402151C0C016A8
:101D5000D106E206F306C8F46C197D09809166038A
:101D6000909167038C0D9D1D5CDB80916A039091BF
:101D70006B03B101681B790B6C0D7D1D640D751D26
:101D800080916403909165030CC0C601861B970B7C
:101D90002091640330916503B201685F7F4F820F29
:101DA000931F3FDB80916A0390916B03AC01092E76
:101DB000000C660B770B84169506A606B70638F45A
:101DC0002091660330916703C60108960AC0D101CD
:101DD000A81BB90BCD018C0D9D1D20916403309182
:101DE0006503820F931FA20160E070E00E945421FE
:101DF0008F8361E070E0CE01079613DB182FB8E007
:101E00004B0E511C611C711CC40CD51CE61CF71C2C
:101E100051CE8C859D85880F991FED81FE81E80F3D
:101E2000F91F488959896A897B89808191810E943B
:101E3000531B4C855D854F5F5F4F5D874C878E855B
:101E40009F8508969F878E8702CE2C893D89488979
:101E500059896A897B89CE0101960E941120EDCDB6
:101E6000112319F08C899D89FFDA69960FB6F894D1
:101E7000DEBF0FBECDBFDF91CF911F910F91FF90BD
:101E8000EF90DF90CF90BF90AF909F908F907F901A
:101E90006F905F904F903F902F900895CF93DF9376
:101EA000EC01AC0160E070E0CB0197DDAE0161E0D8
:101EB00070E080E090E0DF91CF918FCDCF93809163
:101EC0007003909171031BDAC82F811109C060E083
:101ED00070E0CB01BED661E070E080E090E0B9D662
:101EE0008C2FCF9108950F931F9389019A01AB0115
:101EF000BC01809170039091710349DA1F910F9199
:101F000008953F924F925F926F927F928F929F922D
:101F1000AF92BF92CF92DF92EF92FF920F931F93F7
:101F2000CF93DF93CDB7DEB767970FB6F894DEBFD8
:101F30000FBECDBF6C017B015A01809174038823D1
:101F400031F080917403882309F465C30AC064E703
:101F500073E080917003909171031ADA81115BC371
:101F6000F0CF809173031A821982882309F46BC021
:101F7000E0E94E2EEFE55E2E66246394712C00E0BE
:101F800010E09801265A3C4FAE014F5F5F4F61E071
:101F900070E08091700390917103D1D9982E8111D6
:101FA0004EC089819A81080F191F0115110509F486
:101FB00046C081E0481A51086108710839F46091FF
:101FC0007F03709180038DEE90E031C00A301105DF
:101FD00091F549E050E060E070E08AE593E00E940E
:101FE000582160917F03709180038823F1F08091E4
:101FF000620390E068177907D9F48EEE90E0D6D9A5
:1020000088E0EAE5F3E0DE01199601900D928A95E9
:10201000E1F720917F03309180032F5F3F4F3327FB
:102020003093800320937F030AC08FEE90E0BED9E7
:102030001A82198204C00A3011050CF4A2CF81E083
:1020400029813A8124C000E010E078E0672E712CED
:1020500029E030E02C0F3D1F200F311FAE014F5FF4
:102060005F4FB301601B710B8091700390917103FE
:1020700066D9982E29813A81811108C0020F131F59
:102080000115110519F00830110514F381E012163D
:1020900013060CF080E09110BBC2882309F4BBC288
:1020A00080917303811104C019861A861B861C86D1
:1020B00089859A85AB85BC858031910508F0ABC2D6
:1020C000FC01EC5CFF4F0C94E423D6011696ED91D5
:1020D000FC91179780819181A281B38189839A8332
:1020E000AB83BC83AE014F5F5F4F64E070E085E17E
:1020F00090E07FC18D859E85D6D9009731F42FEF72
:102100003FEFA90161E070E00EC0FC01808091808A
:10211000A280B380A701C501B4010E94CC1AA50119
:10212000940160E070E08DE190E070C28D859E8545
:10213000BAD9009721F42FEF3FEFA9010FC0DC01BE
:102140008D909D90AD90BD90AD0195018401B7013A
:10215000C601C4D6A5019401882319F061E070E09E
:1021600002C060E070E08BE190E050C28D859E85FA
:102170009AD9009721F42FEF3FEFA9010FC0FC017E
:1021800081909190A190B190BF01A5019401C601E9
:102190000E947119A5019401882319F061E070E093
:1021A00002C060E070E08CE190E030C2D60114968D
:1021B000ED91FC91159700811181F8018280938047
:1021C000A080B18060E1462E512C612C712C498297
:1021D0005A826B827C8288E090E0A0E0B0E08D8340
:1021E0009E83AF83B8879E012F5E3F4FAE014F5F46
:1021F0005F4F68E070E0809170039091710381D827
:10220000882319F000E010E0BCC089899A890897FA
:10221000C9F7D801ED90FC90B8E0EB0EF11CEE0C84
:10222000FF1CEE0CFF1CC7010E9418248C01892B97
:1022300049F349825A826B827C82C7010F2C000CC1
:10224000AA0BBB0B8D839E83AF83B8879E012F5E45
:102250003F4FAE014F5F5F4F68E070E080917003C9
:10226000909171034ED881118CC089899A89089701
:1022700009F087C0D6011296ED91FC911397408129
:10228000518162817381D8014D935D936D937C93ED
:102290001397448155816681778114964D935D93A0
:1022A0006D937C9317974085518562857385189649
:1022B0004D935D936D937C931B9784859585A6853F
:1022C000B785F80184879587A687B787108A118A12
:1022D000128A138A84E090E0A0E0B0E0848B958BB2
:1022E000A68BB78B80918E0190918F01A0E0B0E01A
:1022F000808F918FA28FB38FC5010B2C000CAA0B7E
:10230000BB0B848F958FA68FB78FF401D801909661
:1023100080E090E08A159B0554F44191519160E072
:1023200070E04D935D936D937D930196F3CF9E0185
:102330002F5E3F4FA801B701809170039091710308
:102340000E94810981111DC089899A898E159F0576
:10235000C1F4A70160E070E0C8010E9454218B8B9A
:102360009E012F5E3F4FAE014D5E5F4F61E070E01A
:1023700080917003909171030E94810981E08093A4
:102380007303C80167960FB6F894DEBF0FBECDBFCA
:10239000DF91CF911F910F91FF90EF90DF90CF9041
:1023A000BF90AF909F908F907F906F905F904F9075
:1023B0003F900C94AD248D859E85AF85B88900979C
:1023C000A105B10521F481E08093720324C16BD88B
:1023D000009789F481E090E0A0E0B0E089839A83DF
:1023E000AB83BC83AE014F5F5F4F64E070E082E17E
:1023F00090E06ADA10C1BC01C6017DD319821A824D
:102400001B821C82AE014F5F5F4F64E070E082E18F
:1024100090E05ADA8111FFC0D6CFD6011496ED9123
:10242000FC9115970190F081E02D008511858FEFCB
:1024300089830115110509F473C0D8016D907C9052
:10244000A280B38020E030E060E070E080E090E0C7
:10245000861597050CF5F801A281B381A20FB31F71
:102460001296ED91FC911397EE0FFF1FEA0DFB1DE5
:102470000190F081E02D16960D90BC91A02DEA9F61
:10248000A001EB9F500DFA9F500D1124640F751F92
:102490000196285F3F4FDCCF83E190E00E94D60990
:1024A0008111B9C0C12CD12CE12CF12CE614F70418
:1024B00084F5D8011296ED91FC911397EC0DFD1D5A
:1024C00080809180A281B381AA0FBB1FAA0DBB1D82
:1024D0002D913C9186819781289F2001299F500C46
:1024E000389F500C1124B201C4010E94110A382EE9
:1024F000920140E050E06981C4010E94402189833B
:10250000B8E0CB0ED11C311086C0EFEFEE1AFE0AF8
:10251000CDCF61E070E0CE0101960E94110A7BC030
:1025200060E070E083E190E00E94D60974C040E072
:1025300050E060E070E081E190E0C6D981116BC0AD
:1025400010910A0460E070E0CB01AFD4112329F0B0
:10255000A70160E070E0CB0140DAA70160E070E025
:10256000CB01A3D361E070E080E090E09ED4112322
:1025700031F0A70161E070E080E090E02EDAA70181
:1025800061E070E080E090E090D3109274031092CC
:1025900073031092800310927F03809170039091D7
:1025A00071030E94CE0937C081E090E090939B02B6
:1025B00080939A0240E050E060E070E086E190E0B5
:1025C00018CF81E0D5018C9326C08D859E850E9411
:1025D000530A009731F42FEF3FEFA90161E070E05B
:1025E00013C0FC012081318142815381CA01B901AC
:1025F0002C8B3D8B4E8B5F8B0E942C1B2C893D8935
:102600004E895F8960E070E08EE190E090D903C070
:10261000C7010E94340A67960FB6F894DEBF0FBE5A
:10262000CDBFDF91CF911F910F91FF90EF90DF9081
:10263000CF90BF90AF909F908F907F906F905F9062
:102640004F903F900895CF92DF92EF92FF92CF93F9
:10265000DF93EC01C12CD12C7601C701B60125D442
:10266000AE01C701B601B9D9AE01C701B6011DD38C
:1026700080916C0390916D03009731F00E94AD241E
:1026800010926D0310926C03CA94CD28CE28CF28E7
:1026900029F0C12CD12C7601C394DFCF8091730334
:1026A000882359F040E050E060E070E084E190E081
:1026B0000BD9F82E1092730301C0F12C8091740392
:1026C000882341F01092740381E090E090938F0191
:1026D00080938E0180917003909171030E94D109C3
:1026E00080917003909171030E94C6098F2DDF9134
:1026F000CF91FF90EF90DF90CF900895CF93DF932D
:10270000EC01AC0160E070E0CB010E94821FAE01E1
:1027100061E070E080E090E0DF91CF910C94821F47
:1027200060E070E0CB010E94EE1F61E070E080E0AD
:1027300090E00C94EE1FCF92DF92EF92FF920F93F6
:102740001F93CF93DF93EC016A017B0100E010E05F
:102750009801D2D701E010E020E030E0B701A601F7
:10276000CE01CAD7DF91CF911F910F91FF90EF90CB
:10277000DF90CF90089568EE73E080E090E00E94D3
:10278000400480E090E008950E94790426E040E053
:1027900050E16EE070E085EA92E00E945B0685EA17
:1027A00092E00E94A505892B29F085EA92E00E941B
:1027B000BF05F5CF80E090E00895AF92BF92CF9231
:1027C000DF92EF92FF920F931F93CF93DF9300D08E
:1027D000CDB7DEB77A018901F9011182108285EA4D
:1027E00092E069837A830E94A50569817A81892BA9
:1027F00099F15B01DD24D39485E6C82E8091810395
:10280000811124C085EA92E00E94BF0585369105BA
:10281000A9F7D0928103F501C1925F01F80180818F
:102820009181019691838083E9CF85EA92E00E94AD
:10283000BF058F3FFFEF9F0749F0F50181935F01CF
:10284000F80180819181019691838083F8018081D4
:1028500091818E159F0548F380E090E00F900F90D6
:10286000DF91CF911F910F91FF90EF90DF90CF906C
:10287000BF90AF9008950F931F93CF93DF93EA011A
:10288000890185EA92E00E948E07F801D183C08316
:1028900080E090E0DF91CF911F910F910895EF922A
:1028A000FF920F931F93CF93DF93DC01EA01F901AD
:1028B00014968D919C91159712960D911C911397DA
:1028C000080F191F2881398118964D915C9119972D
:1028D0004217530728F04D915C911197452B39F120
:1028E0007801E21AF30A18964D915C911997481BEA
:1028F000590B4E0D5F1D4617570794F1A901460F5E
:10290000571F40175107E0F0F182E08233832283A2
:102910006E197F0975836483161617061CF4382F09
:10292000292F02C030E020E03683278313C0189699
:102930008D919C911997821B930B8617970784F0B2
:1029400071836083338322831582148217821682F7
:1029500088819981680F791F7983688380E001C03D
:1029600081E0DF91CF911F910F91FF90EF9008953B
:10297000CF92DF92EF92FF92CF93DF936B017C01B6
:1029800084E48C9DE0018D9DD00D1124CE57DC4F49
:102990008AA99BA9009721F00E94AD241BAA1AAA1C
:1029A00084E48C9DF0018D9DF00D1124EE57FC4FB9
:1029B00086A997A9009711F00E94AD2484E48C9D0C
:1029C000F0018D9DF00D1124EE57FC4F138A128AF1
:1029D000168A178A108E118E128E138E148E158EF3
:1029E000168E178E10A211A281E090E093A382A30D
:1029F00015A214A216A217A210A611A613A612A61B
:102A000015A614A616A617A610AA11AA13AA12AAEA
:102A100015AA14AA17AA16AA11AE10AE12AE13AEBA
:102A200014AE15AEDF01DE961D921D921D921C9212
:102A30001397EE5BFF4F11821082DF91CF91FF90D1
:102A4000EF90DF90CF9008950F931F93CF93DF9374
:102A5000EB01DC018D919C91FC01A681B781E8819D
:102A6000F98123E0EE0FFF1F2A95E1F712962D91D1
:102A70003C911397E20FF31F00811181AC85BD8556
:102A80009D01220F331FDC0112968D919C911397AB
:102A9000D901A80FB91F8D919C9124813581232BD9
:102AA00019F461E070E002C062E070E0689F90019C
:102AB000699F300D789F300D112488859985289F56
:102AC000B001299F700D389F700D1124EC81FD819C
:102AD0002E9FC0012F9F900D3E9F900D1124800FBF
:102AE000911FFA019183808373836283DF91CF9179
:102AF0001F910F9108952F923F924F925F926F9284
:102B00007F928F929F92AF92BF92CF92DF92EF927D
:102B1000FF920F931F93CF93DF9300D000D000D08C
:102B2000CDB7DEB7DC011496ED91FC9115970190BD
:102B3000F081E02D808591859A838983A281B3817C
:102B4000BC83AB83FB0181909190A190B1908F01E8
:102B5000C12CD12C7601C814D904EA04FB040CF072
:102B60005FC0D80114964D905D906D907C90179742
:102B700018964D915D916D917C911B97F80170961F
:102B8000FE83ED83F801A081B18183E0AA0FBB1F12
:102B90008A95E1F7E981FA8182819381A80FB91FB3
:102BA0002D903C901197F80124853585220F331F15
:102BB0008B819C81280F391FF901008111811496A6
:102BC0008D919C911597892B19F481E090E002C0BA
:102BD00082E090E0809F9001819F300D909F300DAA
:102BE0001124249F8001259F100D349F100D112466
:102BF000249DC001259D900D349D900D1124A801A8
:102C00006D817E81820D931D0E9445258D819E815F
:102C1000080F191F9FEFC91AD90AE90AF90A9BCFB1
:102C200026960FB6F894DEBF0FBECDBFDF91CF91D1
:102C30001F910F91FF90EF90DF90CF90BF90AF90DA
:102C40009F908F907F906F905F904F903F902F90CC
:102C50000895CF93DF93DB01AB56BE4F2C91222317
:102C600069F024E4269FF001279FF00D1124EE5710
:102C7000FC4FEF0119922A95E9F71C9224E4269F54
:102C8000F001279FF00D1124EE57FC4F148215829E
:102C9000168217821186108613861286118A108A70
:102CA00017861686DF91CF9163CE2F923F924F9277
:102CB0005F926F927F928F929F92AF92BF92CF92CC
:102CC000DF92EF92FF920F931F93CF93DF93CDB7D5
:102CD000DEB728970FB6F894DEBF0FBECDBF6B01ED
:102CE0007C011A0184E48C9D90018D9D300D11248E
:102CF0002E573C4FF90184819581A681B781892B9C
:102D00008A2B8B2B09F4B8C0A12CB12C412C512C4F
:102D1000320138872F83C90104969A838983D901A8
:102D20001896BC83AB83E981FA8180819181A2816D
:102D3000B381481659066A067B0694F5AB81BC81BF
:102D4000ED91FC91EA0DFB1D228133818901812CDB
:102D5000912C82149304C4F4D801ED91FC91309726
:102D600069F0848195812D833E830E94AD24F80112
:102D7000808191810E94AD243E812D81FFEF8F1AC9
:102D80009F0A0E5F1F4FE5CFC9010E94AD248FEF50
:102D9000481A580A680A780A94E0A90EB11CC3CFF1
:102DA000AF81B88518968D919C9119970E94AD249A
:102DB000EF81F88582859385892B59F1A12CB12C5F
:102DC000812C912C84E48C9D80018D9D100D11240B
:102DD00004571C4F8214930484F4D801ED91FC91A4
:102DE000EA0DFB1D848195810E94AD24BFEF8B1AF3
:102DF0009B0AEEE0AE0EB11CEDCF84E48C9DF00199
:102E00008D9DF00D1124EE57FC4F828593850E9415
:102E1000AD2484E48C9D90018D9D300D1124890199
:102E20000E571C4FD80150968D919C9151970E943E
:102E3000AD24F801868597850E94AD24C701B601AF
:102E400097DDC701B60128960FB6F894DEBF0FBE16
:102E5000CDBFDF91CF911F910F91FF90EF90DF9049
:102E6000CF90BF90AF909F908F907F906F905F902A
:102E70004F903F902F90EDCE28960FB6F894DEBF7E
:102E80000FBECDBFDF91CF911F910F91FF90EF90BB
:102E9000DF90CF90BF90AF909F908F907F906F907A
:102EA0005F904F903F902F90089524E4269FF0016B
:102EB000279FF00D1124EE57FC4F828993890497C8
:102EC000029758F485E090E0938B828B8FEF9FEF11
:102ED000DC01828F938FA48FB58F08952F923F923C
:102EE0004F925F926F927F928F929F92AF92BF921A
:102EF000CF92DF92EF92FF920F931F93CF93DF93C6
:102F0000CDB7DEB7E0970FB6F894DEBF0FBECDBFEA
:102F10009AA389A31B016A012801390184E4849DD5
:102F20008001859D100D112498012E573C4F790189
:102F3000D9014D925D926D927C921397AB01C301C2
:102F4000B201B3DEF801EA57FC4FD6014D915D9115
:102F50006D917D918D01CA0140835183628373839A
:102F600064E070E00E94FE23F70191878087892B3F
:102F700009F499C11E8E1D8E198E1A8E1B8E1C8E01
:102F8000F8A2EF8E97012C5F3F4F38A72FA32C5F3D
:102F90003F4F3AA729A7EFA1F8A580819181A2818F
:102FA000B381298D3A8D4B8D5C8D281739074A07DF
:102FB0005B070CF0E4C0A9A5BAA58D919C912D8D5D
:102FC0003E8D280F391F3A8B298BD801ED91FC914A
:102FD000EE0FFF1FA9A1BAA18D919C91E80FF91FD7
:102FE00080819181F90191838083D80114962D917C
:102FF0003D914D915C9117972BA33CA34DA35EA3EC
:10300000085F1F4F62E070E0C1010E94FE23E98962
:10301000FA8993838283892B09F445C11D8A1E8A0C
:103020001F8A188E2D893E894F89588D8BA19CA1AE
:10303000ADA1BEA1281739074A075B070CF08CC069
:10304000D801ED90FC90EE0CFF1CE989FA89C28052
:10305000D380CE0CDF1C68E070E081E090E00E943D
:10306000FE23D6018D939C93E989FA89828193810D
:10307000FC01EE0DFF1DC080D180C114D10409F404
:1030800012C1D80114964D915D916D917C91179765
:10309000CA01F6014083518362837383085F1F4F27
:1030A00064E070E00E94FE23D60115969C938E93F7
:1030B0001497892B09F4F7C01C8A1B8A812C912C48
:1030C0005401F60180819181A281B381881699060D
:1030D000AA06BB06A4F5F601E480F5802B893C899D
:1030E000E20EF31EF801DE01119680E101900D92CF
:1030F0008A95E1F7005F1F4FA701BE016F5F7F4F09
:10310000A9A1BAA114968D919C9115979DDCF60109
:1031100026813781D70112968D919C911397820F4A
:10312000931F97838683BFEF8B1A9B0AAB0ABB0A58
:103130002B893C892C5F3F4F3C8B2B8BC2CF2D8939
:103140003E894F89588D2F5F3F4F4F4F5F4F2D8BDB
:103150003E8B4F8B588F66CF298D3A8D4B8D5C8D72
:103160002F5F3F4F4F4F5F4F298F3A8F4B8F5C8FB1
:103170002D8D3E8D2C5F3F4F3E8F2D8F0CCF6EE0FF
:1031800070E0C1010E94FE23AF8DB8A11B969C93F5
:103190008E931A97812C912CA12CB12CC12CD12C5F
:1031A00024E4249DC001259D900D11249C012457E9
:1031B0003C4F3A8B298B21E030E0A214B3040CF091
:1031C0004AC0D8014D915D916D917D918D01CA01EB
:1031D000E989FA89E080F180E80CF91C57FD63C0A9
:1031E000D70111963C932E930097A1F02FA738ABEF
:1031F0004BA75CA76DA77EA70E941824F7019583B3
:1032000084832FA538A94BA55CA56DA57EA5892B28
:1032100031F449C0D70115961C921E921497F701FC
:1032200053834283848195819783868391878087A6
:103230001386128681E090E0452B462B472B11F434
:1032400080E090E0C80ED91EFFEFAF1ABF0A4EE033
:10325000840E911CB2CF84E4849D8001859D100D65
:1032600011240E571C4FD8011D961C921E921C97BC
:10327000C60133E0880F991F3A95E1F70E941824A0
:10328000F801918B808B892B71F0C601880F991FF3
:103290000E941824D8011F969C938E931E97892B09
:1032A00011F080E005C0A101C301B201FEDC81E0A4
:1032B000E0960FB6F894DEBF0FBECDBFDF91CF9181
:1032C0001F910F91FF90EF90DF90CF90BF90AF9044
:1032D0009F908F907F906F905F904F903F902F9036
:1032E00008952F923F924F925F926F927F928F92AA
:1032F0009F92AF92BF92CF92DF92EF92FF920F9385
:103300001F93CF93DF93CDB7DEB768970FB6F894CE
:10331000DEBF0FBECDBF9C8B8B8BDB0149015A01F9
:1033200024E4289DC001299D900D11249C012E5755
:103330003C4F79012D913C911197F701358B248BEE
:10334000FC01E856FC4F14964D915D916D917C9176
:1033500017974083518362837383FC01E456FC4FCB
:1033600018964D915D916D917C911B97408351838F
:1033700062837383FC01E056FC4F1C964D915D9176
:103380006D917C911F974083518362837383FC010D
:10339000E055FC4F50965C91509751964C91519747
:1033A00052963C91529753962C9153975083418358
:1033B000328323838D010C5E1F4F852F942F1816A7
:1033C00019060CF068C0880F991F880F991F0E947A
:1033D0001824D701D3969C938E93D297892B09F406
:1033E000BCC0212C312C412C512C32019701225D83
:1033F0003F4F3E8B2D8B2C5F3F4F388F2F8B2E5F97
:103400003F4F3A8B298BB301A2012FEF421A520A88
:10341000620A720AED89FE8980819181A281B3815D
:10342000481759076A077B074CF5AF89B88DCD90CF
:10343000DC90C20CD31CF801DE01119680E10190F2
:103440000D928A95E1F7005F1F4FA601BE016F5FE5
:103450007F4FEB89FC8984819581F6DAA989BA8945
:103460008D919C911197F60122813381820F931FD8
:103470008D939C93F4E02F0E311CC5CFD701D496C9
:103480008D919C91D5970E941824F70197AB86AB3C
:10349000892B09F462C0F80180819181A281B381F6
:1034A00024E4289DF001299DF00D1124EE57FC4FD6
:1034B000AC01BD014D7F21E030E0452B462B472B71
:1034C00011F020E030E033A322A324E4289DF00192
:1034D000299DF00D1124EE57FC4F0197A109B10968
:1034E00021E030E00297A105B10510F020E030E0C6
:1034F00035A324A384E4889DF001899DF00D112457
:10350000CF0188559C4FD80114964D915D916D91D6
:103510007C911797DC014D935D936D937C9313978A
:10352000EE57FC4F868D978DA0A1B1A1B7FF10C0BB
:10353000B095A095909581959F4FAF4FBF4F82AFAB
:1035400093AFA4AFB5AF168E178E10A211A20AC00A
:1035500012AE13AE14AE15AE05C0C501B40108DA43
:1035600081E001C080E068960FB6F894DEBF0FBE20
:10357000CDBFDF91CF911F910F91FF90EF90DF9022
:10358000CF90BF90AF909F908F907F906F905F9003
:103590004F903F902F900895CF92DF92EF92FF923D
:1035A000CF93DF9310920A0424E4269FF001279F13
:1035B000F00D1124EE57FC4F15A614A620E030E0C4
:1035C000C12CD12CDF011A96C1E0D0E0C416D5067B
:1035D000D4F4ED91FC911197E20FF31FE280F38098
:1035E0001E141F0454F4E480F580F782E682F1860D
:1035F000E08613861286D183C083EFEFCE1ADE0AEF
:10360000225F3F4FE3CF24E4269FF001279FF00D78
:103610001124EE57FC4F13A612A611AE10AEDF0117
:10362000DE961D921D921D921C92139782E090E0EF
:10363000938B828BDF91CF91FF90EF90DF90CF90B3
:10364000089524E4269FF001279FF00D1124EE57E2
:10365000FC4F138A128A29CB24E4269FF001279F6E
:10366000F00D1124EE57FC4F82899389813091052A
:10367000C8F08530910518F0059769F008958FEF2F
:103680009FEFDC01828F938FA48FB58F85E090E050
:10369000938B828B08958FEF9FEFDC01828F938F46
:1036A000A48FB58F089524E4249FF001259FF00D89
:1036B0001124EE57FC4F2EE0AC01249FC001259F42
:1036C000900D11240284F385E02DE80FF91F81E0AD
:1036D00080930A04828593859187808740855185F0
:1036E0002681378181E090E04217530711F080E096
:1036F00090E09183808308952F923F924F925F9242
:103700006F927F928F929F92AF92BF92CF92DF92F1
:10371000EF92FF920F931F93CF93DF93CDB7DEB756
:10372000C255D1090FB6F894DEBF0FBECDBF2196AA
:103730009FAF8EAF21974BA75CA76DA77EA74801CF
:10374000590184E4889D8001899D100D1124F801A0
:10375000EE57FC4F2285338527963FAF2EAF279734
:1037600082899389029709F058C186A597A5A0A9D7
:10377000B1A9892B8A2B8B2B29F484E090E0938BC1
:10378000828B4BC18489958921964EAD5FAD21977F
:103790004817590709F041C186A997A99AAB89AB87
:1037A0001EAE1DAE19AE1AAE1BAE1CAE8F01DF01F0
:1037B0009E962996BFAFAEAF2997F2962B96FFAF94
:1037C000EEAF2B979801285C3F4F2D963FAF2EAF61
:1037D0002D97A8014A5D5F4F2F965FAF4EAF2F9791
:1037E000C801829661969FAF8EAF61971A976396D4
:1037F000BFAFAEAF63972996EEADFFAD299780813D
:103800009181A281B38129AD3AAD4BAD5CAD281752
:1038100039074A075B070CF0DFC02B96EEADFFAD12
:103820002B97808191812DAD3EAD280F391F3EAB86
:103830002DABD90112960D90BC91A02D2396BFAF50
:10384000AEAF2397B695A795B695A7952596BFAF2A
:10385000AEAF25972D96EEADFFAD2D97808191816E
:10386000892B09F48EC02F96AEADBFAD2F97CD90AA
:10387000DD90ED90FC9029A83AA8F9010190F08123
:10388000E02DF8ABEFA718AE1FAA8FA998AD25962B
:10389000AEADBFAD25978A179B070CF072C061963D
:1038A000AEADBFAD61978D919C91892B49F1EFA58C
:1038B000F8A94080518062807380A7019601C301FE
:1038C000B201E6D687FD0AC0A7019601D1016D912C
:1038D0007D918D919C91FAD587FD86C0A7019601B7
:1038E000C301B201D5D618165CF4A7019601F10107
:1038F0006081718182819381E9D5882309F474C044
:103900006396AEADBFAD63978D919C91892B49F1C4
:10391000EFA5F8A94080518062807380A7019601CD
:10392000C301B201D3D587FF0AC0A7019601D10117
:103930006D917D918D919C91ABD687FF55C0A7016C
:103940009601C301B201C2D581110BC0A701960136
:10395000F10160817181828193819AD618160CF4ED
:1039600043C02FA938AD2F5F3F4F38AF2FAB34E0A6
:10397000230E311C4FA558A94C5F5F4F58AB4FA782
:1039800084CFEDA9FEA96081718123964EAD5FAD14
:10399000239789A99AA90E94452525968EAD9FADAA
:1039A0002597880F991F880F991F29A93AA9280FD1
:1039B000391F3AAB29AB89AD9AADABADBCAD019621
:1039C000A11DB11D89AF9AAFABAFBCAFADADBEAD60
:1039D0001496BEAFADAF0FCF81E090E0D801D9967D
:1039E0009C938E93D89719C084E4889DF001899D9B
:1039F000F00D1124EE57FC4F868D978DA0A1B1A13B
:103A0000892B8A2B8B2B09F05CC284E090E0938B8E
:103A1000828B86AD97AD93A782A784E4889DF00141
:103A2000899DF00D1124EE57FC4F828993898230D5
:103A3000910571F482AD93ADA4ADB5AD181619061C
:103A40001A061B060CF044C2CC24C394D12C05C02A
:103A5000049709F03DC2C12CD12C8EE02196EEAD29
:103A6000FFAD21978E9F70018F9FF00C1124279638
:103A70002EAD3FAD2797E20EF31ED70112964D9162
:103A80005C9113974115510509F422C216968D9148
:103A90009C9117979AA789A7FE01319684E1DF01CF
:103AA0001D928A95E9F7898A9A8AAB8ABC8AC114E1
:103AB000D10409F457C084E4889DF001899DF00D7C
:103AC0001124EE57FC4FDF01DE964D905D906D9016
:103AD0007C9082AD93ADA4ADB5AD481659066A068B
:103AE0007B0609F03FC0F701648175810084F18590
:103AF000E02D84819581A681B7819C018D8B9E8B61
:103B0000AF8BB88F285F3F4F3E8B2D8BD701189618
:103B10008D919C911997280F391F19963C932E93DC
:103B2000189718968D919C911997460F571F841BD3
:103B3000950B97FD06C0860F971F19969C938E9341
:103B4000189784E4889DF001899DF00D1124E054BC
:103B5000FC4FB1E04B1A5108610871084082518254
:103B6000628273829E012B5E3F4FAE01475D5F4FC5
:103B700064E170E0C7010E944F14082F10E00115A6
:103B8000110509F089C18CE090E0A0E0B0E08D83E0
:103B90009E83AF83B8879E01235E3F4FAE01475D92
:103BA0005F4F64E070E0C7010E944F14082F10E0DF
:103BB0000115110509F070C180E190E0A0E0B0E0CE
:103BC0008D839E83AF83B8874D8D5E8DBE01655D0D
:103BD0007F4F8F8D98A159D78BA19CA1009759F049
:103BE0006D8D7E8DEBE2F0E0EC0FFD1F6E0F7F1F01
:103BF00049A15AA14AD71DA21EA21FA218A621960A
:103C00002EAD3FAD2197220F331F38AF2FAB24E4E9
:103C1000289DC001299D900D11248E579C4FAC0109
:103C20004C5F5F4F5AAF49AFDC011896BEAFADAFE6
:103C30002DA13EA14FA158A529AB3AAB4BAB5CAB34
:103C4000E9ADFAAD80819181A281B381281739074E
:103C50004A075B070CF0CBC0ADADBEADED91FC915A
:103C600089A99AA9880F991F880F991FE80FF91F32
:103C7000A081B1818C91882309F4ABC0833009F411
:103C8000A8C00280F381E02D2FA938ADE20FF31F09
:103C90004081518158AB4FA7452B09F49AC08985C3
:103CA0009A85AB85BC850196A11DB11D89879A8730
:103CB000AB87BC879E01235E3F4FAE01475D5F4FE0
:103CC00064E070E0C7010E944F1490E0009709F093
:103CD000E2C08D819E81AF81B8850496A11DB11D82
:103CE0008D839E83AF83B8874D8D5E8DBE016B5DE6
:103CF0007F4F8F8D98A1C9D68BA19CA1009759F0B9
:103D00006D8D7E8DA5E2B0E0AC0FBD1F6A0F7B1FED
:103D100049A15AA1BAD61EAA1DAA412C512C320182
:103D2000EFA5F8A980819181A281B3814816590637
:103D30006A067B060CF04DC0EFA5F8A924803580FB
:103D40002DA93EA9220E331ED10112966D917C91B0
:103D500013979E01235E3F4FAE01475D5F4FC70142
:103D60000E944F1490E0009709F095C0F101828104
:103D70009381092E000CAA0BBB0B4D815E816F81D4
:103D80007885840F951FA61FB71F8D839E83AF83F1
:103D9000B887608171814D8D5E8D8F8D98A175D6AC
:103DA0008BA19CA1009751F0D1016D917C912D8D3B
:103DB0003E8D620F731F49A15AA167D6BFEF4B1A00
:103DC0005B0A6B0A7B0AEDA9FEA93496FEABEDAB4C
:103DD000A7CF49A85AA86BA87CA8FFEF4F1A5F0A83
:103DE0006F0A7F0A4DA25EA26FA278A621CF8985B5
:103DF0009A85AB85BC85892B8A2B8B2B09F44CC00B
:103E00008AE190E0A0E0B0E089839A83AB83BC8331
:103E100021962EAD3FAD2197C901330FAA0BBB0BE5
:103E20008D879E87AF87B88B4D895E89BE016F5F96
:103E30007F4F8F89988D29D68B8D9C8D009759F057
:103E40006D897E8941E050E04C0F5D1F640F751F46
:103E5000498D5A8D1AD689A59AA5D70117969C9394
:103E60008E93169711961C921E92CD2889F184E4A8
:103E7000889DF001899DF00D1124E054FC4F808154
:103E80009181A281B3810196A11DB11D808391838F
:103E9000A283B3831DC08C01CD28D1F4012BC1F0C6
:103EA00084E4889DF001899DF00D1124EE57FC4FAC
:103EB00081E090E095A784A785E090E0938B828BCA
:103EC00007C083E090E0938B828B81E090E0A3CDEC
:103ED000CE5ADF4F0FB6F894DEBF0FBECDBFDF91D5
:103EE000CF911F910F91FF90EF90DF90CF90BF90F7
:103EF000AF909F908F907F906F905F904F903F908A
:103F00002F900895CF92DF92EF92FF920F931F931D
:103F10006B017C0184E48C9DF0018D9DF00D1124DA
:103F2000EE57FC4F82899389009709F450C001979E
:103F3000B9F482A593A59C012F5F3F4F33A722A719
:103F4000092E000CAA0BBB0B028D138D248D358D11
:103F500080179107A207B307D1F5C701B6011CDB93
:103F600084E48C9DF0018D9DF00D1124EE57FC4FE3
:103F700082899389039759F582A593A59C012F5FA8
:103F80003F4F33A722A7092E000CAA0BBB0B468D6F
:103F9000578D60A171A184179507A607B707BCF0DC
:103FA00086AD97AD93A782A784E090E0938B828B38
:103FB00082AD93ADA4ADB5AD181619061A061B0651
:103FC00034F4EE5BFF4F81E090E0918380831F919A
:103FD0000F91FF90EF90DF90CF90089524E4269FFB
:103FE000F001279FF00D1124EE57FC4F8289938931
:103FF0000497B1F482A593A5019693A782A7092EF1
:10400000000CAA0BBB0B46895789608D718D8417F4
:104010009507A607B70721F485E090E0938B828B84
:1040200008952F923F924F925F926F927F928F925C
:104030009F92AF92BF92CF92DF92EF92FF920F9337
:104040001F93CF93DF93CDB7DEB72E970FB6F894BB
:10405000DEBF0FBECDBF49835A836B837C8349018A
:10406000442E552E24E4249DF001259DF00D1124AD
:10407000EE57FC4F22883388910124503109158670
:1040800014862230310508F0DDC0DC0111961C9247
:104090001E9213961C921E921297A12CB12C60E0D6
:1040A00070E09F01265F3F4F38872F837F013CE000
:1040B000E30EF11CDF015096BA87A9879F01225FAA
:1040C0003F4F3C872B87681579050CF06FC0EF8157
:1040D000F885A081B1819D012A0D3B1D3E872D876A
:1040E000D9012D913C911197232B09F059C01896B5
:1040F0000D911C9119971296ED91FC911397FE83E7
:10410000ED8316962D913C911797D7014D915C91B7
:10411000DA01E3E0AA0FBB1FEA95E1F7E985FA852A
:10412000C080D180FD01EC0DFD1D440F551FAB85F6
:10413000BC85CD90DC904C0D5D1DDA016D937C93B8
:10414000D7014D915C9111974F5F5F4F4D935C93F9
:1041500013830283AD85BE851B963C932E931A97DD
:104160000217130748F4201B310B3183208315827B
:1041700014821782168214C0AD85BE851496CD9028
:10418000DC9015974D815E814C0D5D1D401B510BE0
:10419000518340832C193D0935832483D782C682FD
:1041A0006F5F7F4FBEE0AB0EB11C8DCF24E4249D2A
:1041B0008001259D100D11240E571C4FF8012485F8
:1041C0003585DC0111963C932E93408951891396D5
:1041D0005C934E9312974685578515965C934E9344
:1041E0001497232BA1F5B5E02B16310481F510921D
:1041F0000A04828D938DA48DB58DAE014F5F5F4F04
:1042000064E070E08F3F9F4FAF4FBF4F59F480E2A3
:1042100090E00E94640C69817A818B819C81A40169
:1042200010DA15C08FE190E00E94640CD8019B96D3
:104230001C921E929A9781E090E053969C938E93E5
:10424000529705C0FC0111821082138212822E96B1
:104250000FB6F894DEBF0FBECDBFDF91CF911F9197
:104260000F91FF90EF90DF90CF90BF90AF909F9015
:104270008F907F906F905F904F903F902F90089518
:10428000DC01A40FB51F240F351FAD01481B590BCE
:104290004217530738F4ED91E627F0E0E752FF4F5D
:1042A0006491F3CF862F08959A01AB016FEFE8CFA9
:1042B000CF93FC01E60FF71FE40FF51FC081F4DF79
:1042C00091E0C81390E0892FCF91089580910B045D
:1042D00091E0980F90930B04882349F021E030E09F
:1042E00030930D0420930C0480930B0408950E94D6
:1042F000180180910B04815080930B040C942E03C1
:10430000FF920F931F93CF93DF9300D0CDB7DEB70B
:10431000FF24F394FA820E9479040E94BE0800915F
:10432000180210911902F8011182108260E070E009
:1043300080E090E00E9437030E9454027894C80104
:1043400082960E94360381E090E00E943203198237
:10435000AE014F5F5F4F61E070E0F80182819381B1
:104360000E94DC028981882311F0F801F6A20E94E4
:104370003D03F8940E94C908F80180819181892B3E
:1043800019F481E096A1911180E08A837894FF244A
:10439000F3948A81882321F11982AE014F5F5F4F28
:1043A00061E070E0F801828193810E9418038981A5
:1043B000882311F0F801F6A2F80180819181892B00
:1043C00019F481E096A1911180E08A838A81882383
:1043D00019F00E94CA0802C080E090E08A83D9CF19
:1043E00081E090E00E9434030E94DB02F89480E0B8
:1043F00090E00F900F90DF91CF911F910F91FF9060
:1044000008955058BB27AA270ED008C1F9D030F024
:10441000FED020F031F49F3F11F41EF4EEC00EF4F4
:10442000E095E7FBE4C0E92F0AD180F3BA176207F1
:1044300073078407950718F071F49EF522C10EF4F6
:10444000E0950B2EBA2FA02D0B01B90190010C01A4
:10445000CA01A0011124FF27591B99F0593F50F4BC
:10446000503E68F11A16F040A22F232F342F442714
:10447000585FF3CF469537952795A795F04053950C
:10448000C9F77EF41F16BA0B620B730B840BBAF0DC
:104490009150A1F0FF0FBB1F661F771F881FC2F747
:1044A0000EC0BA0F621F731F841F48F4879577955B
:1044B0006795B795F7959E3F08F0B3CF9395880F12
:1044C00008F09927EE0F9795879508956CD008F41A
:1044D00081E00895BCD088F09F5790F0B92F9927BC
:1044E000B751A0F0D1F0660F771F881F991F1AF0FF
:1044F000BA95C9F712C0B13081F0C3D0B1E00895C8
:10450000C0C0672F782F8827B85F39F0B93FCCF348
:10451000869577956795B395D9F73EF490958095F4
:10452000709561957F4F8F4F9F4F0895E89409C014
:1045300097FB3EF490958095709561957F4F8F4FD6
:104540009F4F9923A9F0F92F96E9BB279395F695EC
:10455000879577956795B795F111F8CFFAF4BB0F6A
:1045600011F460FF1BC06F5F7F4F8F4F9F4F16C0CE
:10457000882311F096E911C0772321F09EE8872F58
:10458000762F05C0662371F096E8862F70E060E014
:104590002AF09A95660F771F881FDAF7880F96958D
:1045A000879597F90895990F0008550FAA0BE0E831
:1045B000FEEF16161706E807F907C0F012161306E5
:1045C000E407F50798F0621B730B840B950B39F425
:1045D0000A2661F0232B242B252B21F408950A268B
:1045E00009F4A140A6958FEF811D811D089597F9CB
:1045F0009F6780E870E060E008959FEF80EC089589
:1046000000240A94161617061806090608950024B1
:104610000A9412161306140605060895092E03942B
:10462000000C11F4882352F0BB0F40F4BF2B11F49F
:1046300060FF04C06F5F7F4F8F4F9F4F089557FDFE
:104640009058440F551F59F05F3F71F04795880F00
:1046500097FB991F61F09F3F79F087950895121697
:1046600013061406551FF2CF4695F1DF08C0161643
:1046700017061806991FF1CF8695710561050894F4
:104680000895E894BB2766277727CB0197F908950B
:104690008ADF08F48FEF08950BD0C0CFB1DF28F088
:1046A000B6DF18F0952309F0A2CFA7CF1124EACFE7
:1046B000C6DFA0F3959FD1F3950F50E0551F629F81
:1046C000F001729FBB27F00DB11D639FAA27F00D6B
:1046D000B11DAA1F649F6627B00DA11D661F829F92
:1046E0002227B00DA11D621F739FB00DA11D621F77
:1046F000839FA00D611D221F749F3327A00D611D94
:10470000231F849F600D211D822F762F6A2F112475
:104710009F5750408AF0E1F088234AF0EE0FFF1FC8
:10472000BB1F661F771F881F91505040A9F79E3FFF
:10473000510570F05CCFA6CF5F3FECF3983EDCF301
:10474000869577956795B795F795E7959F5FC1F73C
:10475000FE2B880F911D9695879597F9089597FBE5
:10476000072E16F4009406D077FD08D033D007FC4E
:1047700005D03EF4909581959F4F08957095619571
:104780007F4F0895A1E21A2EAA1BBB1BFD010DC08D
:10479000AA1FBB1FEE1FFF1FA217B307E407F507F1
:1047A00020F0A21BB30BE40BF50B661F771F881FCD
:1047B000991F1A9469F760957095809590959B0163
:1047C000AC01BD01CF010895EE0FFF1F0590F491DC
:1047D000E02D0994AA1BBB1B51E107C0AA1FBB1FF8
:1047E000A617B70710F0A61BB70B881F991F5A957D
:1047F000A9F780959095BC01CD0108950F931F9363
:10480000CF93DF93869F8001879F100D969F100D99
:104810001124C8010DD0EC01009721F0A80160E03F
:1048200070E03CD1CE01DF91CF911F910F9108959F
:10483000CF93DF938230910510F482E090E0E09115
:104840003704F091380420E030E0C0E0D0E0309749
:1048500011F14081518148175907C0F04817590795
:1048600061F482819381209719F09B838A832BC006
:10487000909338048093370426C02115310519F030
:104880004217530718F49A01BE01DF01EF010280BD
:10489000F381E02DDCCF2115310509F1281B390BFF
:1048A0002430310590F412968D919C9113976115E7
:1048B000710521F0FB019383828304C09093380437
:1048C00080933704FD01329644C0FD01E20FF31FCF
:1048D00081939193225031092D933C933AC02091BA
:1048E000350430913604232B41F42091020130919C
:1048F0000301309336042093350420910001309158
:1049000001012115310541F42DB73EB74091040155
:1049100050910501241B350BE0913504F0913604CC
:10492000E217F307A0F42E1B3F0B2817390778F086
:10493000AC014E5F5F4F2417350748F04E0F5F1FE5
:1049400050933604409335048193919302C0E0E084
:10495000F0E0CF01DF91CF9108950F931F93CF9394
:10496000DF93009709F48CC0FC0132971382128206
:1049700000913704109138040115110581F420814C
:104980003181820F931F209135043091360428170E
:10499000390779F5F0933604E093350471C0D801F6
:1049A00040E050E0AE17BF0750F412962D913C91B5
:1049B0001397AD012115310509F1D901F3CF9D01FF
:1049C000DA013383228360817181860F971F8217FA
:1049D000930769F4EC0128813981260F371F2E5F78
:1049E0003F4F318320838A819B8193838283452B30
:1049F00029F4F0933804E093370442C01396FC93F3
:104A0000EE931297ED01499159919E01240F351FA4
:104A1000E217F30771F480819181840F951F02964C
:104A200011969C938E938281938113969C938E937F
:104A30001297E0E0F0E0D80112968D919C911397C7
:104A4000009719F0F8018C01F6CF8D919C91980197
:104A50002E5F3F4F820F931F209135043091360413
:104A60002817390769F4309729F410923804109206
:104A7000370402C013821282109336040093350467
:104A8000DF91CF911F910F910895FB01DC0102C0CE
:104A900001900D9241505040D8F70895DC0101C0BB
:104AA0006D9341505040E0F70895FB01DC018D917A
:104AB000019080190110D9F3990B0895F894FFCF54
:104AC0000000390480000100000003000E015E01B7
:104AD0000000000003006A010700000003007601E7
:104AE000000000000600AB01B201BC01BB01C40123
:104AF000C301CD01CC01D501DF01EA01F001FA01CA
:104B0000030204000400010001000200020004008E
:104B1000040001000400020002000400080000007C
:104B2000000000000000685C083F0B000000090066
:104B300000000A0000000000803F00007F430000EA
:104B4000803F00007F430000803F00007F43010062
:104B500082038203FF010153696D756C6174696F93
:104B60006E2066696E6973686564007265616C5F6A
:104B700054007265616C33325F540075696E74382D
:104B80005F540075696E7431365F540075696E74D8
:104B900033325F5400626F6F6C65616E5F54006604
:104BA000636E5F63616C6C5F5400696E745F540088
:104BB000706F696E7465725F5400616374696F6EC3
:104BC0005F540074696D65725F75696E7433325F2E
:104BD000706169725F5400010E0400000000150648
:104BE0008E07A505BF05B105F405000000004407C8
:104BF0002D77002D69676E6F72652D6172670043B6
:104C00006F756C64206E6F742063726561746520CB
:104C100065787465726E616C206D6F646520757364
:104C2000657220646174612E20204F7574206F6658
:0A4C3000206D656D6F72792E0A0089
:00000001FF
