:100000005CC000007FC000007DC000007BC000001D
:1000100079C0000077C0000075C0000073C0000008
:1000200071C000006FC000006DC000006BC0000018
:1000300069C0000067C0000065C0000063C0000028
:10004000A7C200005FC0000083C00000B3C0000072
:1000500059C0000057C0000055C0000053C0000048
:1000600051C000004FC00000000000080002010065
:100070000003040700000000000000000102040863
:100080001020408001020408102001020408102002
:10009000040404040404040402020202020203032E
:1000A0000303030300000000250028002B000000CC
:1000B0000000240027002A00080111241FBECFEFF2
:1000C000D8E0DEBFCDBF11E0A0E0B1E0E4EDF8E0A4
:1000D00002C005900D92A832B107D9F721E0A8E23D
:1000E000B1E001C01D92AE3CB207E1F710E0CDE5F2
:1000F000D0E003C02197FE01E5D3CC35D107D1F77D
:10010000EAD1E6C37DCF61E08DE04ED326E040E842
:1001100055E260E070E088E291E079C160E071E072
:1001200088E291E025D261E08DE07AD368EE73E059
:1001300080E090E09CD263E071E088E291E018D228
:1001400060E08DE06DD368EE73E080E090E08FC2F8
:100150001F920F920FB60F9211242F938F939F939C
:10016000EF93FF93E0913801F09139018081E091A4
:100170003E01F0913F0182FD12C0908180914101CA
:100180008F5F8F7320914201821751F0E0914101FE
:10019000F0E0E85DFE4F958F8093410101C08081C2
:1001A000FF91EF919F918F912F910F900FBE0F9024
:1001B0001F9018951F920F920FB60F9211242F9334
:1001C0003F934F935F936F937F938F939F93AF93DF
:1001D000BF93EF93FF9388E291E091D0FF91EF916D
:1001E000BF91AF919F918F917F916F915F914F914F
:1001F0003F912F910F900FBE0F901F90189588E29E
:1002000091E033D021E0892B09F420E0822F08957A
:10021000E8E2F1E01382128288EE93E0A0E0B0E021
:1002200084839583A683B7838BE091E09183808359
:1002300085EC90E09587848784EC90E097878687AB
:1002400080EC90E0918B808B81EC90E0938B828BA3
:1002500082EC90E0958B848B86EC90E0978B868B7C
:10026000118E128E138E148E0895FC01918D228DA5
:10027000892F90E0805C9F4F821B91098F73992793
:100280000895FC01918D828D981731F0828DE80FD1
:10029000F11D858D90E008958FEF9FEF0895FC018B
:1002A000918D828D981761F0828DDF01A80FB11DAD
:1002B0005D968C91928D9F5F9F73928F90E00895D1
:1002C0008FEF9FEF0895FC01538D448D252F30E073
:1002D000842F90E0821B930B541710F0CF96089553
:1002E000019708958FEF90E0892B41F080E090E036
:1002F000892B21F084DF81110C9400000895FC010A
:10030000848DDF01A80FB11DA35ABF4F2C91848D9E
:1003100090E001968F739927848FA689B7892C93D3
:10032000A089B1898C9180648C93938D848D98136E
:1003300006C00288F389E02D80818F7D8083089537
:10034000CF93DF93EC01888D8823C1F0EA89FB8984
:10035000808185FD05C0A889B9898C9186FD0EC074
:100360000FB607FCF5CF808185FFF2CFA889B98948
:100370008C9185FFEDCFCE01C2DFE8CFDF91CF9129
:100380000895EF92FF920F931F93CF93DF93EC01A9
:1003900081E0888F9B8D8C8D981305C0E889F98941
:1003A000808185FD23C0F62E0B8D10E00F5F1F4F5F
:1003B0000F731127E02E8C8DE8120BC00FB607FCCF
:1003C000FACFE889F989808185FFF5CFCE0197DFE3
:1003D000F2CF8B8DFE01E80FF11DE35AFF4FF08243
:1003E0000B8FEA89FB898081806207C0EE89FF89D3
:1003F0006083E889F98980818064808381E090E06E
:10040000DF91CF911F910F91FF90EF900895CF92C0
:10041000DF92EF92FF921F93CF93DF93EC016A017B
:100420007B01122FE889F98982E080834115514EC2
:1004300061057105A9F060E079E08DE390E0A70126
:1004400096011ED2DA01C9010197A109B109B69539
:10045000A79597958795AC01411580E15807A0F0C5
:10046000E889F989108260E874E88EE190E0A701DC
:10047000960106D2BA01A9014150510961097109D9
:100480007695679557954795EC85FD855083EE8564
:10049000FF854083188EEC89FD891083EA89FB89EA
:1004A000808180618083EA89FB8980818860808384
:1004B000EA89FB89808180688083EA89FB89808161
:1004C0008F7D8083DF91CF911F91FF90EF90DF9020
:1004D000CF900895089504D1FDDF15DEC2E7D1E085
:1004E0001DDE2097E9F3FEDEFBCFCF92DF92EF9285
:1004F000FF920F931F93CF93DF936C017A018B01CF
:10050000C0E0D0E0CE15DF0589F0D8016D918D01F6
:10051000D601ED91FC910190F081E02DC601099585
:10052000892B11F47E0102C02196ECCFC701DF9127
:10053000CF911F910F91FF90EF90DF90CF90089592
:100540006115710579F0FB0101900020E9F7319701
:10055000AF01461B570BDC01ED91FC910280F3814A
:10056000E02D099480E090E0089569E171E0E8CF22
:100570000F931F93CF93DF93EC01E2DF8C01CE0149
:10058000F4DF800F911FDF91CF911F910F9108959C
:100590001F920F920FB60F9211242F933F938F93B8
:1005A0009F93AF93BF938091C6019091C701A09193
:1005B000C801B091C9013091C50123E0230F2D3747
:1005C00020F40196A11DB11D05C026E8230F029657
:1005D000A11DB11D2093C5018093C6019093C70151
:1005E000A093C801B093C9018091CA019091CB0139
:1005F000A091CC01B091CD010196A11DB11D8093B8
:10060000CA019093CB01A093CC01B093CD01BF91CF
:10061000AF919F918F913F912F910F900FBE0F90AF
:100620001F9018953FB7F8948091CA019091CB0123
:10063000A091CC01B091CD0126B5A89B05C02F3F5C
:1006400019F00196A11DB11D3FBFBA2FA92F982FF8
:100650008827820F911DA11DB11DBC01CD0142E073
:10066000660F771F881F991F4A95D1F708958F92BB
:100670009F92AF92BF92CF92DF92EF92FF926B0167
:100680007C01D0DF4B015C01C114D104E104F10411
:10069000F1F0F5D0C7DFDC01CB0188199909AA096F
:1006A000BB09883E9340A105B10570F321E0C21A51
:1006B000D108E108F10888EE880E83E0981EA11C9D
:1006C000B11CC114D104E104F10421F7DDCFFF9086
:1006D000EF90DF90CF90BF90AF909F908F90089554
:1006E000789484B5826084BD84B5816084BD85B50D
:1006F000826085BD85B5816085BDEEE6F0E08081D4
:1007000081608083E1E8F0E01082808182608083F4
:10071000808181608083E0E8F0E080818160808377
:10072000E1EBF0E0808184608083E0EBF0E08081A9
:1007300081608083EAE7F0E080818460808380814B
:1007400082608083808181608083808180688083F3
:100750001092C1000895833081F028F4813099F01F
:100760008230A1F008958730A9F08830B9F0843044
:10077000D1F4809180008F7D03C0809180008F77BD
:1007800080938000089584B58F7702C084B58F7DF3
:1007900084BD08958091B0008F7703C08091B00030
:1007A0008F7D8093B0000895CF93DF9390E0FC019C
:1007B000E458FF4F2491FC01E057FF4F84918823B8
:1007C00061F190E0880F991FFC01E255FF4FC59140
:1007D000D491FC01EC55FF4FA591B491611109C072
:1007E0009FB7F8948881209582238883EC912E23EB
:1007F0000BC0623061F49FB7F8943881822F8095E6
:1008000083238883EC912E2B2C939FBF06C08FB738
:10081000F894E8812E2B28838FBFDF91CF91089524
:100820001F93CF93DF93282F30E0F901E859FF4F52
:100830008491F901E458FF4FD491F901E057FF4F3B
:10084000C491CC23C1F0162F811185DFEC2FF0E08D
:10085000EE0FFF1FEC55FF4FA591B4918FB7F894A1
:10086000111105C09C91ED2FE095E92302C0EC9198
:10087000ED2BEC938FBFDF91CF911F9108950895D9
:10088000A1E21A2EAA1BBB1BFD010DC0AA1FBB1F94
:10089000EE1FFF1FA217B307E407F50720F0A21B06
:1008A000B30BE40BF50B661F771F881F991F1A9473
:1008B00069F760957095809590959B01AC01BD019D
:1008C000CF010895EE0FFF1F0590F491E02D0994DC
:0408D000F894FFCFCA
:1008D4004F4E004F46460000000000C10175026300
:1008E40001A00135014F0141010D0A006E616E0046
:0808F400696E66006F76660074
:00000001FF
