:100000005CC000007FC000007DC000007BC000001D
:1000100079C0000077C0000075C0000073C0000008
:1000200071C000006FC000006DC000006BC0000018
:1000300069C0000067C0000065C0000063C0000028
:10004000DCC200005FC0000083C00000B3C000003D
:1000500059C0000057C0000055C0000053C0000048
:1000600051C000004FC00000000000080002010065
:100070000003040700000000000000000102040863
:100080001020408001020408102001020408102002
:10009000040404040404040402020202020203032E
:1000A0000303030300000000250028002B000000CC
:1000B0000000240027002A00080111241FBECFEFF2
:1000C000D8E0DEBFCDBF11E0A0E0B1E0E8E1F9E0AB
:1000D00002C005900D92A831B107D9F721E0A8E13F
:1000E000B1E001C01D92AE3BB207E1F710E0CAEBF0
:1000F000D0E003C02297FE0109D4C83BD107D1F755
:100100000BD208C47DCF61E08DE06DD326E040E8DE
:1001100055E260E070E088E191E09DC160E071E04F
:1001200088E191E05AD261E08DE096D368EE73E009
:1001300080E090E0CFD263E071E088E191E04DD2C1
:1001400060E08DE089D368EE73E080E090E0C2C2A9
:100150001F920F920FB60F9211242F938F939F939C
:10016000EF93FF93E0912801F09129018081E091C4
:100170002E01F0912F0182FD12C0908180913101FA
:100180008F5F8F7320913201821751F0E09131011E
:10019000F0E0E85EFE4F958F8093310101C08081D1
:1001A000FF91EF919F918F912F910F900FBE0F9024
:1001B0001F9018951F920F920FB60F9211242F9334
:1001C0003F934F935F936F937F938F939F93AF93DF
:1001D000BF93EF93FF9388E191E097D0FF91EF9168
:1001E000BF91AF919F918F917F916F915F914F914F
:1001F0003F912F910F900FBE0F901F90189588E19F
:1002000091E049D021E0892B09F420E0822F089564
:1002100010921B0110921A0188EE93E0A0E0B0E06A
:1002200080931C0190931D01A0931E01B0931F01A8
:100230008BE091E0909319018093180185EC90E098
:10024000909325018093240184EC90E09093270102
:100250008093260180EC90E09093290180932801FF
:1002600081EC90E090932B0180932A0182EC90E046
:1002700090932D0180932C0186EC90E090932F01B8
:1002800080932E01109231011092320110923301AD
:10029000109234010895FC01818D228D90E0805CE4
:1002A0009F4F821B91098F7399270895FC01918DAF
:1002B000828D981731F0828DE80FF11D858D90E0C9
:1002C00008958FEF9FEF0895FC01918D828D98170F
:1002D00061F0828DDF01A80FB11D5D968C91928D2A
:1002E0009F5F9F73928F90E008958FEF9FEF089527
:1002F0008FEF90E0892B41F080E090E0892B21F096
:100300007EDF81110C9400000895FC01848DDF01D3
:10031000A80FB11DA35ABF4F2C91848D90E0019678
:100320008F739927848FA689B7892C93A089B18967
:100330008C9180648C93938D848D981306C0028871
:10034000F389E02D80818F7D80830895CF93DF93A3
:10035000EC01888D8823C1F0EA89FB89808185FDC5
:1003600005C0A889B9898C9186FD0EC00FB607FC1F
:10037000F5CF808185FFF2CFA889B9898C9185FF5F
:10038000EDCFCE01C2DFE8CFDF91CF910895CF92BC
:10039000DF92FF920F931F93CF93DF931F92CDB7FE
:1003A000DEB76C01DC015B969C915B975C968C914F
:1003B0005C97981307C05096ED91FC9151978081FE
:1003C00085FD31C0F601038D10E00F5F1F4F0F73E5
:1003D0001127F02EF601848DF81210C00FB607FC1D
:1003E000F9CFD6015096ED91FC915197808185FF10
:1003F000F1CFC601698389DF6981ECCF838DE80F76
:10040000F11DE35AFF4F6083D6015B960C935B9717
:100410005296ED91FC91539780818062808381E0B8
:1004200058968C930DC0D6015696ED91FC91579736
:1004300060835096ED91FC91519780818064808318
:1004400081E090E00F90DF91CF911F910F91FF908D
:10045000DF90CF900895BF92CF92DF92EF92FF92FC
:10046000CF93DF93EC016A017B01B22EE889F98911
:1004700082E08083411581EE58076105710599F08E
:1004800060E079E08DE390E0A70196011BD2215056
:1004900031094109510956954795379527952115F9
:1004A00080E1380790F0E889F989108260E874E803
:1004B0008EE190E0A701960105D221503109410952
:1004C00051095695479537952795EC85FD853083DD
:1004D000EE85FF852083188EEC89FD89B082EA893C
:1004E000FB89808180618083EA89FB8980818860C3
:1004F0008083EA89FB89808180688083EA89FB891F
:1005000080818F7D8083DF91CF91FF90EF90DF908E
:10051000CF90BF900895089502D1FDDFF4DDC8E7C4
:10052000D1E0FCDD2097E9F3E3DEFBCFCF92DF9251
:10053000EF92FF920F931F93CF93DF936C017A0199
:10054000EB01E60EF71E00E010E0CE15DF0561F0CE
:100550006991D601ED91FC910190F081E02DC601E9
:100560000995080F191FF1CFC801DF91CF911F9195
:100570000F91FF90EF90DF90CF9008956115710576
:1005800081F0DB010D900020E9F7AD0141505109E8
:10059000461B570BDC01ED91FC910280F381E02DAD
:1005A000099480E090E00895DC01ED91FC910190C8
:1005B000F081E02D09940F931F93CF93DF93EC010B
:1005C0006DE0F2DF8C016AE0CE01EEDF800F911F5B
:1005D000DF91CF911F910F9108950F931F93CF93A8
:1005E000DF93EC01CBDF8C01CE01E5DF800F911FA3
:1005F000DF91CF911F910F9108951F920F920FB627
:100600000F9211242F933F938F939F93AF93BF9398
:100610008091B6019091B701A091B801B091B90154
:100620003091B50123E0230F2D3720F40196A11D51
:10063000B11D05C026E8230F0296A11DB11D209310
:10064000B5018093B6019093B701A093B801B09320
:10065000B9018091BA019091BB01A091BC01B09108
:10066000BD010196A11DB11D8093BA019093BB01FC
:10067000A093BC01B093BD01BF91AF919F918F91A9
:100680003F912F910F900FBE0F901F9018953FB77D
:10069000F8948091BA019091BB01A091BC01B091F6
:1006A000BD0126B5A89B05C02F3F19F00196A11DDD
:1006B000B11D3FBF6627782F892F9A2F620F711DBA
:1006C000811D911D42E0660F771F881F991F4A9573
:1006D000D1F70895CF92DF92EF92FF92CF93DF93FD
:1006E0006B017C01D4DFEB01C114D104E104F104FE
:1006F00079F0E7D0CCDF6C1B7D0B683E7340A0F334
:1007000081E0C81AD108E108F108C851DC4FECCFEC
:10071000DF91CF91FF90EF90DF90CF900895789484
:1007200084B5826084BD84B5816084BD85B58260F6
:1007300085BD85B5816085BDEEE6F0E08081816094
:100740008083E1E8F0E01082808182608083808194
:1007500081608083E0E8F0E0808181608083E1EB6C
:10076000F0E0808184608083E0EBF0E08081816054
:100770008083EAE7F0E0808184608083808182600A
:1007800080838081816080838081806880831092F3
:10079000C1000895833081F028F4813099F08230CF
:1007A000A1F008958730A9F08830B9F08430D1F4F1
:1007B000809180008F7D03C0809180008F7780932F
:1007C0008000089584B58F7702C084B58F7D84BD85
:1007D00008958091B0008F7703C08091B0008F7D25
:1007E0008093B0000895CF93DF9390E0FC01E4582C
:1007F000FF4F2491FC01E057FF4F8491882349F17A
:1008000090E0880F991FFC01E255FF4FA591B4912C
:100810008C559F4FFC01C591D4919FB7611108C0C1
:10082000F8948C91209582238C93888182230AC02E
:10083000623051F4F8948C91322F309583238C934D
:100840008881822B888304C0F8948C91822B8C93AE
:100850009FBFDF91CF9108950F931F93CF93DF93A5
:100860001F92CDB7DEB7282F30E0F901E859FF4FCE
:100870008491F901E458FF4F1491F901E057FF4FBB
:1008800004910023C1F0882319F0698383DF698113
:10089000E02FF0E0EE0FFF1FEC55FF4FA591B49154
:1008A0009FB7F8948C91611103C01095812301C00A
:1008B000812B8C939FBF0F90DF91CF911F910F9150
:1008C00008950895A1E21A2EAA1BBB1BFD010DC0BD
:1008D000AA1FBB1FEE1FFF1FA217B307E407F507F0
:1008E00020F0A21BB30BE40BF50B661F771F881FCC
:1008F000991F1A9469F760957095809590959B0162
:10090000AC01BD01CF010895EE0FFF1F0590F491DA
:08091000E02D0994F894FFCFDB
:100918004F4E004F46460000000000C70196024BAC
:080928000164015601A6010063
:00000001FF
